:02000000ff00ff
:080002004c6174746963650030
:17000a00694345637562653220323032302e31322e32373934330071
:16002100506172743a2069434534304858344b2d545131343400f9
:1a003700446174653a20417567203520323032352031343a30323a353100bb
:0200510000ffae
:040053007eaa997e6a
:02005700510056
:0200590001059f
:03005b00920020f0
:03005e00620367d3
:0300610072011019
:0300640082000017
:02006700110086
:02006900010193
:20006b00000000000000000000000000000000000000000000000000000000000000000075
:20008b00000000000000000000000010000000000000000000000000000000000000000045
:2000ab00000000000000000000000000000000000000000000000000000000000000000035
:0d00cb000000000000000800000000000020
:2000d8000000000000000000000000000000000000000000000000000d00000000000000fb
:2000f800000000000000000000000000000000000000000d000000000000000000000000db
:200118000000000000000000000000000000000000000000000000000000000000000000c7
:0d01380000000000000000000000000000ba
:2001450000000000000000000000000000000000000000000000000000000000000000009a
:2001650000000000000000000000001000000000000000000000000000000000000000006a
:2001850000000000000000000000000000000000000000000000000000000000000000005a
:0d01a50000000000000004007000000000d9
:2001b20000000000000000000000000000000000000000000000000000000000000000002d
:2001d20000000000000000000000000000000000000000000000000000000000000000000d
:2001f2000000000000000000000000000000000000000000000000000000000000000000ed
:0d021200000000000000000080000000005f
:20021f000000000000000000000000000000000000000000000000000000000000000000bf
:20023f0000000000000000000000002000000040000000000000000000000000000000003f
:20025f0000000000000000000000000000000000000000000000000000000000000000007f
:0d027f00000000000000080000003000003a
:20028c00000000000000000000000000000000000000000000000000000000000000000052
:2002ac00000000000000000000000000000003c0000000000000000000000000000000006f
:2002cc00000000000000000000000000000000000000000000000000000000000000000012
:0d02ec0000000000000000000000100000f5
:2002f9000000000000000000000000000000000000000000000000000001000000000000e4
:200319000000000000000000000000100000000000000000010000000000000000000000b3
:200339000000000000000000000000000000000000000000000000000000000000000000a4
:0d0359000000000000000000000000000097
:20036600000000000000000000000000000000000000000000000000000000000000000077
:20038600000000000000000000000020000000000000000000000000000000000000000037
:2003a600000000000000000000000000000000000000000000000000000000000000000037
:0d03c600000000000000000000000000002a
:2003d300000000000000000000000000000000000000000000000000000200000000000008
:2003f30000000000000000000000000000c0400000000000020000000000000000000000e8
:200413000000000000000000000000000000000000000000000000000000000000000000c9
:0d04330000000000000000000000000000bc
:2004400000000000000000000000000000000000000000002000000000000000000000007c
:2004600000000000000000000000000000200020000000000000000000000000000000003c
:2004800000000000000000000000000000000000000000000000000000000000000000005c
:0d04a000000000000000000000000000004f
:2004ad0000000000000000000000000000000000000000000000004007000d0000000000db
:2004cd000000000000000000000000000000000000004007000d00000000000000000000bb
:2004ed000000000000000000000000000000000000000000000000000000000000000000ef
:0d050d0000000000000000000000000000e1
:20051a0000000000000000000000000000000000000000000000004008000d00000000006c
:20053a000000000000000000000000000000000000004000000d0000000000000000000054
:20055a00000000000000000000000000000000000000000000000000000000000000000081
:0d057a000000000000000000000000000074
:20058700000000000000000000000000000000000000000000000000000000000000000054
:2005a700000000000000000000000000000000000000000000000000000000000000000034
:2005c700000000000000000000000000000000000000000000000000000000000000000014
:0d05e7000000000000000000000000000007
:2005f4000000000000000000000000000000000000000000000000400000000000000000a7
:20061400000000000000000000000000034000000000400010000000000000000000000033
:200634000000000000000000000000000000000000000000000000000000000000000000a6
:0d0654000000000000000000000000000099
:20066100000000000000000000000000000000000000000000000040000000000000000039
:20068100000000000000000000000000000040000000000000000000000000000000000019
:2006a100000000000000000000000000000000000000000000000000000000000000000039
:0d06c100000000000000000000100000001c
:2006ce0000000000000000000000000000000000000000000000008000000000000000008c
:2006ee0000000000000000000000000000000000000080000000000000000000000000006c
:20070e000000000000000000000000000000000000000000000000000000000000000000cb
:0d072e0000000000000000000000000000be
:20073b0000000000000000000000000000000000000000000000000000000000000000009e
:20075b0000000000000000000000000000000000000000000000000000000000000000007e
:20077b0000000000000000000000000000000000000000000000000000000000000000005e
:0d079b000000000000000000000000000051
:2007a800000000000000000000000000000000000000000000000000000000000000000031
:2007c800000000000000000000000000000000000000000000000000000000000000000011
:2007e8000000000000000000000000000000000000000000000000000000000000000000f1
:0d08080000000000000000000000000000e3
:200815000000000000000000000000000000000000000000000000000000000000000000c3
:200835000000000000000000000000000000000000000000000000000000000000000000a3
:20085500000000000000000000000000000000000000000000000000000000000000000083
:0d0875000000000000000000000000000076
:20088200000000000000000000000000000000000000000000000000000000000000000056
:2008a200000000000000000000000000000000000000000000000000000000000000000036
:2008c200000000000000000000000000000000000000000000000000000000000000000016
:0d08e2000000000000000000000000000009
:2008ef000000000000000000000000000000000000000000000000000000000000000000e9
:20090f000000000000000000000000000000000000000000000000000000000000000000c8
:20092f000000000000000000000000000000000000000000000000000000000000000000a8
:0d094f00000000000000000000000000009b
:20095c0000000000000000000000000000000000000000000000000000000000000000007b
:20097c0000000000000000000000000000000000000000000000000000000000000000005b
:20099c0000000000000000000000000000000000000000000000000000000000000000003b
:0d09bc00000000000000000000000000002e
:2009c90000000000000000000000000000000000000000000000010000000000000000000d
:2009e9000000000000000000000000000000000000000000000000000000000000000000ee
:200a09000000000000000000000000000000000000000000000000000000000000000000cd
:0d0a290000000000000000000000000000c0
:200a36000000000000000000000000000000000000000000000000000000000000000000a0
:201106001000000000000000000000000000000000000000000000000000000000000000b9
:201126000000000000000000000000000000000000000000000000000000000000000000a9
:20114600000000000000000000000000000000000000000000000000000000000000000089
:0d116600000000000000000000000000007c
:2011730000000000000000000000000000000000000000000000000000000000000000005c
:2011930000000000000000000000000000000000000000000000000000000000000000003c
:2011b30000000000000000000000000000000000000000000000000000000000000000001c
:0d11d300000000000000000000000000000f
:2011e0000000000000000000000000000000000000000000000000000000000000000000ef
:201200000000000000000000000000000000000000000000000000000000000000000000ce
:201220000000000000000000000000000000000000000000000000000000000000000000ae
:0d12400000000000000000000000000000a1
:20124d00000000000000000000000000000000000000000000000000000000000000000081
:20126d00000000000000000000000000000000000000000000000000000000000000000061
:20128d00000000000000000000000000000000000000000000000000000000000000000041
:0d12ad000000000000000000000000000034
:2012ba00000000000000000000000000000000000000000000000000000000000000000014
:2012da000000000000000000000000000000000000000000000000000000000000000000f4
:2012fa000000000000000000000000000000000000000000000000000000000000000000d4
:0d131a0000000000000000000000000000c6
:201327000000000000000000000000000000000000000000000000000000000000000000a6
:20134700000000000000000000000000000000000000200000000000000000000000000066
:20136700000000000000000000000000000000000000000000000000000000000000000066
:0d1387000000000000000000000000000059
:20139400000000000000000000000000000000000000000000000000000000000000000039
:2013b4000000000000000000000000000000000000004000000000000000000000000000d9
:2013d4000000000000000000000000000000000000000000000000000000000000000000f9
:0d13f40000000000000000000000000000ec
:201401000000000000000000000000000000000000000000000000000000000000000000cb
:201421000000000000000000000000000000000000000000000000000000000000000000ab
:201bab004000000000000000000000000000000000000000000000000000000000000000da
:201bcb000000000000000000000000000000000000000000000000000000000000000000fa
:201beb000000000000000000000000000000000000000000000000000000000000000000da
:0d1c0b0000000000000000000000000000cc
:201c180080020000000000000000000000000000000000000000000a000000000000000020
:201c380000000000000000000000000000000000000000000000000000000000000000008c
:201c580000000000000000000000000000000000000000000000000000000000000000006c
:0d1c780000000000000000c000000000009f
:201c850000000000000000000000000000000000000000000000000000000000000000003f
:201ca5000000000000000000000000400000000000000000000000000000000000000000df
:201cc5000000000000040000000000000000000000000000000000000000000000000000fb
:0d1ce50000000000000000000000000000f2
:201cf200800000000000000000000000000000000000000000000000000000000000000052
:201d12000000000000000000000000000000000000000600000000000000000000000000ab
:201d3200000000000000000000000000000000000000000000000000000000000000000091
:0d1d52000000000000000000000000000084
:201d5f008600000000000000000000000000000000000000000000000000000000000000de
:201d7f00000000000000000000000000000000000000000000000000000000000000000044
:201d9f000000000000000000000000000000000000004000000000000000000000000000e4
:0d1dbf000000000000000000000000000017
:201dcc008f0000000000000000000000000000000000000000000100000000000000000067
:201dec000000000000000000000000000000000000000000000000000000000000000000d7
:201e0c000000000000000000000000000000000000000000000000000000000000000000b6
:0d1e2c0000000000000000000000000000a9
:201e3900000100000000000000000000000000000000000000000000000000000000000088
:201e5900000000000000000000000028000000000000000000000000000000000000000041
:201e7900000000000000000000000000000000000000000000000000000000000000000049
:0d1e9900000000000000000000000000003c
:201ea60000000000000000000000000000000000000000000000010000000000000000001b
:201ec6000000000000000000000000100000000000000000000000000000000000000000ec
:201ee6000000000000000000000000100000000000000000000000000000000000000000cc
:0d1f060000000000000010000000000000be
:201f13000000000000000000000000000000000000000000000000000000000000000000ae
:201f330000000000000000000000000000000000000200000000000000000000000000008c
:201f530000000000000000000000000000000000000000000000000000000000000000006e
:0d1f73000000000000000000000000000061
:201f800000020000000000000000000000000000000000000000000000000000000000003f
:201fa000000000000000000000000000000000000000000000000000000000000000000021
:201fc000000000000000000000000000000000000000000000000000000000000000000001
:0d1fe00000000000000000000000000000f4
:201fed004c3400000000000000000000000000000000000000000000000000000004000050
:20200d000000000000000000000000000000000000000000000000000000000000000000b3
:20202d00000000000000000000000000000000000000000000000000000000000000000093
:0d204d000000000000000000000000000086
:20205a000c2800000000000000000000000000000000000000000000000000000000000032
:20207a00000000000000000000000000000000000000000000000000000000000000000046
:20209a00000000000000000000000000000000000000000000000000000000000000000026
:0d20ba000000000000000000000000000019
:2020c7000000000000000000000000000000000000000000000000000000000000000000f9
:2020e7000000000000000000000000000000000000000000000000000000000000000000d9
:202107000000000000000000000000000000000000000000000000000000000000000000b8
:0d21270000000000000000000000000000ab
:2021340080000000000000000000000000000000000000000000000000000000000000000b
:2021540000000000000000000000000000000000000000000000000000000000000000006b
:2021740000000000000000000000000000000000000000004000000000000000000000000b
:0d219400000000000000000000000000003e
:2021a1004000000000000000000000000000000000000000000000000000000000000000de
:2021c1000000000000000000000000000000000000000000000000000000000000000000fe
:2021e1000000000000000000000000000000000000000000000000000000000000000000de
:0d22010000000000000000000000000000d0
:20220e00003000000000000000000000000000000000000000000000000000000000000080
:20222e00000000000000000000000000000000000000000000000000000000000000000090
:20224e00000000000000000000000000000000000000000000000000000000000000000070
:0d226e000000000000000000000000000063
:20227b00400000000000000000000000000000000000000000000000000000000000000003
:20229b00000000000000000000000000000000000000000000000000000000000000000023
:2022bb00000000000000000000000000000000000000000000000000000000000000000003
:0d22db0000000000000000000000000000f6
:2022e8000000000000000000000000000000000000000000000000000000000000000000d6
:202308000000000000000000000000000000000000000000000000000000000000000000b5
:20232800000000000000000000000000000000000000000000000000000000000000000095
:0d2348000000000000000000000000000088
:20235500000000000000000000000000000000001000000000000000000000000000000058
:20237500000000000000000000000000000000000000000000000000000000000000000048
:20239500000000000000000000000000000000000000000000000000000000000000000028
:0d23b500000000000000000000000000001b
:2023c200800000000000000000000000000000000800000000000000000000000000000073
:2023e2000000000000000000000000000000000000000000000000000000000000000000db
:202402000000000000000000000000000000000000000000000000000000000000000000ba
:0d24220000000000000000000000000000ad
:20242f0081700000000000000000000000000000000000000000000000000000000000009c
:20244f0000000000000000000000000000000000000000000000000000000000000000006d
:20246f0000000000000000000000000000000000000000000000000000000000000000004d
:0d248f000000000000000000000000000040
:20249c0082400000000000000000000000000000000000000000010000000000000000005d
:2024bc00000000000000000000000000000000000000000000000000000000000000000000
:2024dc000000000000000000000000000000000000000000000000000000000000000000e0
:0d24fc0000000000000000000000000000d3
:202509000001000000000000000000000000000000000000000000000000000000000000b1
:20252900000000000000000000000000000000000000000000000000000000000000000092
:20254900000000000000000000000000000000000000000000000000000000000000000072
:0d2569000000000000000000000000000065
:20257600000000000000000000000000000000000000000000000000000000000000000045
:20259600000000000000000000000000000000000000000000000000000000000000000025
:2025b600000000000000000000000000000000000000000000000000000000000000000005
:0d25d60000000000000000000000000000f8
:2025e3000000000000000000000000000000000000000000000000000000000000000000d8
:202603000000000000000000000000000000000000000000000000000000000000000000b7
:20262300000000000000000000000000000000000000000000000000000000000000000097
:0d264300000000000000000000000000008a
:20265000000200000000000000000000000000000000000000000000000000000000000068
:2026700000000000000000000000000000000000000000000000000000000000000000004a
:2026900000000000000000000000000000000000000000000000000000000000000000002a
:0d26b000000000000000000000000000001d
:2026bd000000000000000000000000000000000000000000000000000000000000000000fd
:2026dd000000000000000000000000000000000000000000000000000000000000000000dd
:2026fd000000000000000000000000000000000000000000000000000000000000000000bd
:0d271d0000000000000000000000000000af
:20272a0000000000000000000000000000000000000000000000000000000000000000008f
:20274a0000000000000000000000000000000000000000000000000000000000000000006f
:20276a0000000000000000000000000000000000000000000000000000000000000000004f
:0d278a000000000000000000000000000042
:20279700000000000000000000000000000000000000000000000000000000000000000022
:2027b700000000000000000000000000000000000000000000000000000000000000000002
:2027d7000000000000000000000000000000000000000000000000000200000000000000e0
:0d27f70000000000000000000000000000d5
:202804000000000000000000000000000000000000000000000000000000000000000000b4
:20282400000000000000000000000000000000000000000000000000000000000000000094
:20284400000000000000000000000000000000000000000000000000000000000000000074
:0d2864000000000000000000000000000067
:20287100000000000000000000000000000000000000000000000000000000000000000047
:20289100000000000000000000000000000000000000000000000000000000000000000027
:2028b100000000000000000000000000000000000000000000000000000000000000000007
:0d28d10000000000000000000000000000fa
:2028de000000000000000000000000000000000000000000000000000000000000000000da
:2028fe000000000000000000000000000000000000000000000000000000000000000000ba
:20291e00000000000000000000000000000000000000000000000000000000000000000099
:0d293e00000000000000000000000000008c
:20294b0040000000000000000000000000000000000000000000000000000000000000002c
:20296b0000000000000000000000000000000000000000000000000000000000000000004c
:20298b0000000000010000000000000000000000000000000000000000000000000000002b
:0d29ab00000000000000000000000000001f
:2029b8008002800000000000000000000000000000000000000000000000000000000000fd
:2029d8000000000000000000000000000000000000000000000000000000000000000000df
:2029f8000000000002000000000000000000000000000000000000000000000000000000bd
:0d2a180000000000000000000000000000b1
:202a2500000000000000000000000000000000000000000000000000000000000000000091
:202a450000000000020000000000000000000000000000000000000000000000000000006f
:202a650000000000000400000000000000000000000000000000000000000000000000004d
:0d2a85000000000000000000000000000044
:202a92008000000000000000000000000000000002000000000000020000000000000000a0
:202ab200000000000000000000000000000000000000000000000000000000000000000004
:202ad2000000000000000000000000000000000000000000000000000000000000000001e3
:0d2af20000000000000000000000000000d7
:202aff00870000000000000000000000000000000000000000000000000000000000000030
:202b1f00000000000000000000000000000000000000000000000000000000000000000096
:202b3f00000000000000000000000000000000000000000000000000000000000000000076
:0d2b5f000000000000000000000000000069
:202b6c008a00000000000000000000000000000000000000000000000000000000000000bf
:202b8c00000000000000000000000000000000000000000000000000000000000000000029
:202bac00000000000000000000000000000000000000000000000000000000000000000009
:0d2bcc0000000000000000000000000000fc
:202bd9000003000000000000000000000000000000000000000000000000000000000000d9
:202bf9000000000000000000000000000000000000000000000000000000000000000000bc
:202c190000000000000000000000000000000000000000000000000000000000000000009b
:0d2c3900000000000000000000000000008e
:202c460000000000000000000000000000000000000000000000010000000000000000006d
:202c660000000000000000000000000000000000000000000000000000000000000000004e
:202c860000000000000000000000001000000000000000000000000000000000000000001e
:0d2ca6000000000000000000000000000021
:202cb3000068800000000000000060000000000000000000000000000000000000000000b9
:202cd30000000000000000000000000000000000000280000000000000000000000000005f
:202cf3000000000000000000000000000000000000000000000000000000000000000000c1
:0d2d130000000000000000000000000000b3
:202d2000000280000000000000000000000000000000000000000000000000000000000011
:202d4000000000000000000000000000000000000000000000000000000000000000000073
:202d6000000000000000000000000000000000000000000000000000000000000000000053
:0d2d80000000000000000000000000000046
:202d8d00000000000000000000000000000000000000000000000000000000000000000026
:202dad00000000000000000000000000000000000000000000000000000000000000000006
:202dcd000000000000000000000000000000000000000000000000000000000000000000e6
:0d2ded0000000000000000000000000000d9
:202dfa00000180000000000000000000000000000000000000000000000000000000000038
:202e1a00000000000000000000000000000000000000000000000000000000000000000098
:202e3a00000000000000000000000000000000000000000000000000000000000000000078
:0d2e5a00000000000000000000000000006b
:202e6700000400000000000000200000000000000000000000000000000000000000000027
:202e870000000000000000000000000000000000000000000000000000000000000000002b
:202ea70000000000000000000000000000000000000000000000000000000000000000000b
:0d2ec70000000000000000000000000000fe
:202ed40080340000000000000000000000000000000000000000000000000000000000002a
:202ef4000000000000000000000000000000000000000000000000000000000000000000be
:202f140000000000000000000000000000000000000000000000000000000000000000009d
:0d2f34000000000000000000000000000090
:202f4100000000000000000000000000000000000000000000000000000000000000000070
:202f6100000000000000000000000000000000000000000000000000000000000000000050
:202f8100000000000000000000000000000000000000000000000000000000000000000030
:0d2fa1000000000000000000000000000023
:202fae00000000000000000000000000000000000000000000000000000000000000020001
:202fce000000000000000000000000000000000000000000000000000000000000000000e3
:202fee000000000000000000000000000000000000000000000000000000000000000000c3
:0d300e0000000000000000000000000000b5
:20301b00000000000000000000000000000000000000000000000000000000000000000095
:20303b00000000000000000000000000000000000000000000000000000000000000000075
:20305b00000000000000000000000000000000000000000000000000000000000000000055
:0d307b000000000000000000000000000048
:20308800000000000000000000000000000000000000000000000000000000000000000028
:2030a800000000000000000000000000000000000000000000000000000000000000000008
:2030c8000000000000000000000000000000000000000000000000000000000000000000e8
:0d30e80000000000000000000000000000db
:2030f5000000000000000000000000000000000000000000000000000000000000000010ab
:2031150008617c0200000000000000000000000000000000000000000000000000000000b3
:2031350000000000000000000000000000000000000000000000000000000000000000007a
:0d315500000000000000000000000000006d
:2031620000000000000000000000000000000000000000000000000000000000000000103d
:203182000102bc000000000000000000000000000000000000000000000000000000080066
:2031a20000000000000000000000000000000000000000000000000000000000000000000d
:0d31c2000000000000000000000000000000
:2031cf000000000000000000000000000000000000000000000000000000000000000000e0
:2031ef0000000000000000000000004000000000000000000000000000000000000006007a
:20320f0000000000000000000000000000000000000000000000000000000000000000009f
:0d322f000000000000000000000000000092
:20323c00000000000000000000000000000000000000000000000000000000000000000072
:20325c00000000000000000000000040000000000000000000000000000000000000000012
:20327c00000000000000000000000000000000000000000000000000000000000000000032
:0d329c000000000000000000000000000025
:2032a9000000000000000000000000000000000000000000000000000000000000100000f5
:2032c9000000000000000000000000000000000000000000000000000000000000000000e5
:2032e9000000000000000000000000000000000000000000000000000000000000000000c5
:0d33090000000000000000000000000000b7
:20331600000000000000000000000000000000000000000000000000000000000000000097
:20333600000000000000000000000000000000000000000000000000000000000000000077
:2033560000000000000000000000000000000000000000000000000000080000000000004f
:0d337600000000000000000000000000004a
:2033830000000000000000000000000000000000000000000000000000000000001000001a
:2033a30000000000000000000000000000000000000000000000000000000000000000000a
:2033c3000000000000000000000000000000000000000000000000000000000000000000ea
:0d33e30000000000000000000000000000dd
:2033f00000000000000000000000000000000000000000000000000000000000002000009d
:2034100000000000000000000000000000000000000000000000000000000000000000009c
:2034300000000000000000000000000000000000000000000000000000000000000000007c
:0d345000000000000000000000000000006f
:20345d0000000000000000000000000000000000000000000000000000000000000000004f
:20347d0000000000000000000000000000000000000000000000000000000000000000002f
:20349d000000000000000000000000001000000000000000000000000000000000000000ff
:0d34bd000000000000000000000000000002
:2034ca000000000000000000000000000000000000000000000000000000000000000000e2
:2034ea000000000000000000000000000000000000000000000000000000000000000000c2
:20350a000000000000000000000000000000000000000000000000000000000000000000a1
:0d352a000000000000000000000000000094
:20353700000000000000000000000000000000000000000000000000000000000000000074
:20355700000000000000000000000000000000000000000000000000000000000000000054
:20357700000000000000000000000000000000000000000000000000000000000000000034
:0d3597000000000000000000000000000027
:2035a400000000000000000000000000000000000000000000000000000000000000000007
:2035c4000000000000000000000000000040000000000000000000000000000000000000a7
:2035e4000000000000000000000000000000000000000000000000000000000000000000c7
:0d36040000000000000000000000000000b9
:20361100000000000000000000000000000000000000000000000000000000000000000099
:20363100000000000000000000000000000000000000000000000000000000000000000079
:20365100000000000000000000000000000000000000000000000000000000000000000059
:0d367100000000000000000000000000004c
:20367e0000000000000000000000000000000000000000000000000000000000000000002c
:20369e000000000000000000000000000000000000000000000000000040000000000000cc
:2036be000000000000000000000000000000000000000000000000000000000000000000ec
:0d36de0000000000000000000000000000df
:2036eb000000000000000000000000000000000000000000000000000000000000000000bf
:20370b0000000000000000000000000000000000000000000000000000010000000000009d
:20372b00000000000000001000000000000001ef040000000000000000000000000000007a
:0d374b000000000000000000000000000071
:20375800000000000000000000000000000000000000000000000000000000000000000051
:20377800000000000000000000000000000000000000000000000000000f00000000000022
:2037980000000000000000c0000000000000010f001400000000000000000000000000002d
:0d37b8000000000000000000000000000004
:2037c5000000000000000000000000000000000000000000000000000000000000000000e4
:2037e5000000000000000000000000800000000000000000000000800000000000000000c4
:2038050000000000080100000000002000000000000000000000000000000000000000007a
:0d3825000000000000000000000000000096
:2038320018000000000000000000000000000000000000000000000000000000000000005e
:20385200000000000000000000000200000000000000000000000200000000000000000052
:20387200000000002000000000000080000000000000000000000000000000000000000096
:0d3892000000000000000000000000000029
:20389f00000000000000000000000000000000000000000000000000000000000000000009
:2038bf00000000000000000000000110000e000000000000000003000000000000000000c7
:2038df0000000000300000003bc102c00000000000000000000000000000000000000000db
:0d38ff0000000000000000000000000000bc
:20390c0000000000000000000000000000000000000000000000000000000000000000009b
:20392c00000000000000000000000300000000000000000000000300000000000000000075
:20394c00000000001000000043c00040000000000000000000000000000000000000000008
:0d396c00000000000000000000000000004e
:2039790000000000000000000000000000000000000000000000000000000000000000002e
:2039990000000000000000000000004000000000000000000000000000000203d0000000f9
:2039b900000000000000000023c1000000000000000000000000000000000000000000000a
:0d39d90000000000000000000000000000e1
:2039e6000000000000000000000000000000000000000000000000000000000000000000c1
:203a06000000000000000000000000400000000000000a000000000000000403c01000007f
:203a2600000000000000000043c00400000000000000000000000000000000000000000079
:0d3a46000000000000000000000000000073
:203a5300000000000000000000000000000000000000000000000000000000000000400013
:203a730000000000000000000000000400000703d4000e000000000400000000000000003f
:203a9300000000000040000000000001000040000000000000000000000000000000000092
:0d3ab3000000000000000000000000000006
:203ac0000000000000000000000000000000000000000000000000000000000000004000a6
:203ae00000000000000000000000000000000403c0000000000000000000000000000000ff
:203b000000000000000000e000000000000340000000000000000000000000000000000082
:0d3b20000000000000000000000000000098
:203b2d0000000000000000000000000000000000000000000000000c00000000000000006c
:203b4d00000000000000000000000000001a0000000000000000000000000000000000003e
:203b6d00000000000000000000000000000000000000000000000000000000000000000038
:0d3b8d00000000000000000000000000002b
:203b9a0000000000000000000000000000000000000000000000000000000000000000000b
:203bba000000000000000000000000000010000000000000000000000000000000000000db
:203bda0000000000000000000000000080000000000000000000000000000000000000004b
:0d3bfa0000000000000000000000000000be
:203c070000000000000000000000000000000000000000000000000000000000000000009d
:203c2700000000000000000000000000000000000000000000000000000e0000000000006f
:203c470000000000000000100000000000000000000000000000000000000000000000004d
:0d3c67000000000000000000000000000050
:203c740000000000000000000000000000000000000000000000000400000000000000002c
:203c9400000000000000000000000000000000000000000000000000001000000000000000
:203cb40000000000000000f000000000000000000000000000000000000000000000000000
:0d3cd40000000000000000000000000000e3
:203ce1000000000000000000000000000000000000000000000000000000000000000000c3
:203d0100000000000000000000000000500000000000000000000000000000000000000052
:203d2100000000000000000000000000000040000000000000000000000000000000000042
:0d3d41000000000000000000000000000075
:203d4e00000000000000000000000000000000000000000000000000000000000000000055
:203d6e00000000000000000000000000000000000000000000000000000000000000000035
:203d8e00000000000000000000000000000300000000000000000000000000000000000012
:0d3dae000000000000000000000000000008
:203dbb000000000000000000000000000000000000000000000000000000000000000200e6
:203ddb000000000000000000000000000000000000020000000000000000000000000000c6
:203dfb00000000000002000802950020000000000000000000000000000000001cf060007b
:0d3e1b00000000000000000000000000009a
:203e2800000000000000000000000000000000001000000000000000000000000000050065
:203e480000000000000000000000000010000000000000000000000000000000000000004a
:203e680000000000000100050168040002c0000000000000000000000000000000f008000d
:0d3e8800000000000000000000000000002d
:203e950000000000000000000000000000000000000000000000000000000000000001000c
:203eb5000000000000000000000000800000000000000000000000800000000000020020cb
:203ed500000000000800000000000020000000000000800000000000020000000000000023
:0d3ef50004000000000000000000000000bc
:203f020000000000000000000000000000000000000000000000000000000000000002009d
:203f2200000000000000000000000000000000000000000000000200000000000008003441
:203f42000000000020000000000000800000000000020000000000000800000000000000b5
:0d3f62000000000000000000000000000052
:203f6f00000000000000000000000000000000000000000000000100000000000000000031
:203f8f00000000000000000000000300000000000001000000000300000c073c100c400060
:203faf0000000000110000e0000000c00000000000030000000000000c0000000000000032
:0d3fcf0000000000000000000000000000e5
:203fdc000000000000000000000000000000000000000000000001000000000000000000c4
:203ffc000000000000000000000001000000000000010000000001000000003c0044000022
:20401c000000000030000100000000c000c0000000010000000000000400000000000000ce
:0d403c000000000000000000000000000077
:20404900020000000000000000000000000000000000000000000000000000000000000055
:20406900000000000000000000000000000003bc1820000000000000000000000000000040
:2040890000000000000078007bc10200000000000000000000000000000000000000000061
:0d40a900000000000000000000000000000a
:2040b6000000000000000000000000000000000000000000000000000000000000000000ea
:2040d6000000000000000000000000000000003c000000000000000000000000000002008c
:2040f600000000000000080043c00000000000000000000900000000000000000000000096
:0d411600000000000000000000000000009c
:2041230000000000000000000000000000000000000000000000000000000000000040003c
:2041430000703c00010800000000002c000000000000000000000004000100295040100e9f
:20416300001cf041006800007bc10021000000af041004000000000000100004000000004f
:0d418300000000000000000000000000002f
:204190000000000000000000000000000000000000000000000000000000000000004000cf
:2041b00000003c600100000000000004000f00000000000000000004000ed01680101100a6
:2041d0002010f0000040000043c080000000000f000000000f0000000000003c0000000092
:0d41f00000000000000000000000000000c2
:2041fd00000000000000000000000000000000000000000000000000000000000000001092
:20421d000000000000000000000000000000000000000000000000004780000000000000ba
:20423d00200000000001000000000000000000000000000000000000000004000000000438
:0d425d0000000000000000000001e0f10082
:20426a00000000000000000000000000000000000000000000000000000000000000000034
:20428a00000000000000000000000000000000000000000000000000008000000000000094
:2042aa0000000000004a000000000001000000000000040000000000001000000000000491
:0d42ca000000000000000000000000f000f7
:2042d7000000000000000000000000000000000000000000000000000100000000000000c6
:2042f700000000000000000000000000810000000000000000000000000000000000000026
:20431700000cf04040000000000000000003800a540800000006bc1000000000000000004f
:0d4337000000000000000000000000000079
:20434400000000000000000000000000000000000000000000000000000000000000000059
:204364000000000000000000000000001080000000000000000000000000000000000000a9
:204384000000f000003000000000000000040405a000000000003c004010000000000000c0
:0d43a40040000000000001000000000000cb
:2043b1000000000000000000000000000000000000000000000000000000000000000000ec
:2043d100000000000000000000000000000000000000000000000028000000000000100094
:2043f1000018f041004001d0000000010000000000000450000000000010000000000000ed
:0d4411000000000000000000c000000000de
:20441e0000000000000000000000000000000000000000000000000000000000000000007e
:20443e0000000000002010000000000000000000000000000000001000000000000000011d
:20445e000000f000400801d000000000000000000000002000000000000000000000000015
:0d447e000800000000000000200000000009
:20448b0000000000000000000000000000000000030000000000000c000000000000000002
:2044ab000000000000000001cf070000000000000000000000000000000000000000001604
:2044cb0000000000000000102bc100000006b4938000000000000000000000000000000008
:0d44eb000000000000000000067ddb8000e6
:2044f8000000000000000000000000000000000000000000000000000000000000000000a4
:2045180000000000000000000f000000000000000000000000000000000000000000001c58
:2045380030000000000000f043c00400000005d76000000000000000000000000000000000
:0d4558000000000000000000021f9b5080ca
:20456500000000000000000000000000000000000000000000000000010000000000000035
:204585000000000020000000000000800000002958000000000000800000073c1000200002
:2045a500000000000800000000000000020000000000000000d74f402200000200a540007d
:0d45c5000000000000006001e600000000a2
:2045d2000000000000000000000000000000000000000000000000000000000000000000c9
:2045f2000000000080000000000002020000701688000800000002000000003c00000000d1
:2046120028000000200000000000000002c00000000000000077498008000002c05a010019
:0d463200000000000000000022c000000099
:20463f0000000000000000000000000000000000000000000000000000000000000000005b
:20465f0000000000c000000000000100001c00000002040000000300000007bc1000000082
:20467f00040000001000001802950000020037d380000003800000000c000000000000003d
:0d469f00000000000000000000058a04007b
:2046ac000000000000000000000000000000000000000000000000000000000000000000ee
:2046cc000000000040000000000003000010000000000000000003000000003c001000002c
:2046ec0028000000100000c70168040002c004d760100000800000000400000000000000b1
:0d470c00000000000000000000260f00006b
:20471900000000000000000000000000000000000000000000000000000000000000000080
:2047390000000000020000000000000000000000000000000000000000000000000000203e
:2047590003ccf500000000807bc180200000000000000000000000000000800000000000a0
:0d4779008000000000000002002e800400ff
:20478600000000000000000000000000000000000000000000000000000000000000000013
:2047a60000000000040000000000000000000000000000000000000020000000000000349b
:2047c600017050000000010043c000000140000000000000000000000000000000000001cc
:0d47e6000000000000000000400500a100e0
:2047f3000000000000000000000000000000000000000000000000000000000000000000a6
:20481300000000000000004000000000000000000000200000000000000000000000040021
:20483300065c031200280000000000080000000000000000000000000000000400000000ba
:0d48530002000000000000000077ca048091
:20486000000000000000000000000000000000000000000000000000000000000000000038
:20488000000000000000034000000000000000000000400000000000000000000000000095
:2048a0003650f30000000000000000000000000000000000000000000000003c0000000043
:0d48c0000000000000000000029d0af00052
:2048cd000000000000000000000000000000000000000000000000000000000000000000cb
:2048ed00000000000001c000000000000000000000000000000000000000000000000000ea
:20490d007841e701020000006bc1000011c040000000000009000000000000201ef04080b3
:0d492d0000000000000000000680000000f7
:20493a0000000000000000000000000000000000000000000000000000000000000000005d
:20495a0000000000000000000000000000000000000000000000000001000000000000003c
:20497a00004a42000120000043c0010000230000000000000f0000000000004010f00000fa
:0d499a0000000000000000014000000000cf
:2049a7000000000000000000000000000000000000000000000000000000000000000000f0
:2049c700000000000000000000000000680000000000000000000000001c0000000000004c
:2049e700700000000000000000000000000000000000000000003fc06000000000000000e1
:0d4a07000000000000000000004000000062
:204a1400000000000000000000000000000000000000000000000000000000000000000082
:204a34000000000000000000000000002b0000000000000000000000000000000000000037
:204a5400000000000000000000000000e00000000000000000003fc0000000000000000063
:0d4a740000000000000000000280000000b3
:204a8100000000000000000000000000000000000000000000000000000000000000010014
:204aa100000000000000000000000000000000000000000000000000070007bc10400000db
:204ac1000048f500800010e000000000000000000000000000000000000000200000000008
:0d4ae1000000000000000001602d8f5480d7
:204aee000000000000000000000000000000000000000000000000000000000000000000a8
:204b0e000000000000000000000000000000000000000000000000000700003c080000003c
:204b2e00035050000000000000000000000000000000000100000000000000400000000083
:0d4b4e000000000000000000002700a00093
:204b5b0000000000000000000000000000000000000000000000000000000000000000003a
:204b7b000000000000000000e0f4000080008029542000000000000000013bc84400001c45
:204b9b00005aa5000008f9d93a80000000030000000000000070002000015e0041008000b4
:0d4bbb0000d015e2800000000000000000a6
:204bc800003e0000000000000000000000000000000000000000000000000000000000008f
:204be800000000000000000000f00000000050168800000000000000010e321ec000001e92
:204c080001d0aa000000b8a943d40000e00400000000000000000000800080000f000000a6
:0d4c28000098808280000001400000000024
:204c35008000000000000000000000000000000000000000000000000000000000000000df
:204c55000000000024000000000000800000073c141000000000000008000000000ea0542a
:204c7500046ef500000000ef23d400e00006adc624002800003265a006082000e8f0801858
:0d4c95000050a000000060000000000000c2
:204ca200800000000000000000020000000000000000000000000000000000000000000070
:204cc2000000000082000000000002000000003c00100000000000000b0000000008408e21
:204ce2002cc0a0000100b0dfc28040800000269b520000000a0ae58800021c0000f00000f2
:0d4d020000d90000000000000000000000cb
:204d0f00000000000000000000000000000000000000000000000000000000000000000084
:204d2f0000000000c000000000000300000000295400000000000080000000000000015c47
:204d4f00007af54001080000000000002000000000000007803265a80200002168f08000ab
:0d4d6f0000d8a77085c04000029ceb8000ba
:204d7c00000000000000000000000000000000000000000000000000000000000000000017
:204d9c00000000005000000000000300000070168801000000000000000d0000000000b4d4
:204dbc000040a0000000b000000000000140000000000000800265800000004020f000004f
:0d4ddc000011b1e40000c000c01dfb51003b
:204de9000003000000000000000000000000000000000000000000000000000000040000a3
:204e0900000000000000000000000000070000295c1000000000000000007628002001042a
:204e29006c18e2000400f809a3d400000000000000000000007a65a000062007c9015000c1
:0d4e49000080000000000008000407e028c1
:204e5600000000000000000000000000000000000000000000000000000000000004000038
:204e76000000000000000000000000000000701688000000000000000000d03d40000ab403
:204e960074dad1000400d8054140000060000000000000000a0ae58040001c20ea400004f8
:0d4eb6000010b00000000000000007e00048
:204ec30000000000000000000000000000000000000000000000000080000000000000004f
:204ee300000000000000000000000000000000000000000000000000080000000000001e89
:204f0300780ca30288000008638848000000000000000007003a65a0420000040000000016
:0d4f2300000007688520000000000000006d
:204f300080020000000000000000000000000000000000000000000140000000000000009e
:204f50000000000000000240000000000000000000000000000000000500000000000002f8
:204f700041505300003800094344000000028000000000008d0a6580000000340000000043
:0d4f90000050a1a80000000000000000007b
:204f9d004000000000000000000000000000000000000000000000000000000000000000b4
:204fbd000000000000001000000000000000000000004000000000000100924c0020000085
:204fdd00001be200080000000000000014001dc6260800500e7265a000003c02caf50000b8
:0d4ffd0000018562000000000000000000bf
:20500a00020000000000000000000000000000000000000000000000000000000000000084
:20502a000000000000000000000000000900000000002000000000000080f73cc0000000ca
:20504a0000d8d100000000000000000088c3179b50000020000ae58010aa1601f0a0200040
:0d506a00000001ac0000000000000000008c
:20507700000000000000000000000000000000000000000000000000000000000000000019
:20509700000000000002000000000000091e00000000000000000000058000000000000e3d
:2050b700020ca302410000e524e0000000028000000000000e7a65a0408000676f0148000e
:0d50d700001011aa000800014280a0f400a2
:2050e40080000000000000000000000000000000000000000000000000000000000000002c
:20510400000000000001c000000000000d10000000000000000000000700000000000000a6
:2051240001505300000000e16ae40200000000000000000310026580004000207e4000007e
:0d5144000008a78000000001428000f0007c
:205151008000000000000000000000000000000000000000000000000000000000000000be
:2051710000000000000000000000000000000000000000000000000000000000000000001e
:20519100000000000000000168bc004800000000000000001c5265a000003c68000000007a
:0d51b10000000b32000800000000000000ac
:2051be000000000000000000000000000000000000000000000000000000000000000000d1
:2051de000000000000000000000000000000000000000000000000000008000000000000a9
:2051fe00000000000000008524540084000000000000000f1002e58001403e00000000000b
:0d521e0000d007400000000000000000006c
:20522b00000000000000000000000000000000000000000000000000000000000000000063
:20524b00000000000000000dea500040078936c000004000000000000000062808200000a0
:20526b0003ec05400000008df0a8000000039c83d00000001a1265a000000027cb3d000078
:0d528b0000000723c3000000001de8000024
:205298000000000000000000000000000000000000000000000000000000000000000100f5
:2052b80000000000000140050aa00040009f92600240a00000000000000b74140050003c14
:2052d8002960af00000051e1bde8000203c02d8260000000000a258100000465dd260800af
:0d52f800000000003c080000003ee0000047
:20530500000000000000000000000000000000000000000000000000000000000000000088
:205325000000000000000000000000004001000000008000000000000008832c408e002ef4
:205345002178fa400000900123ec80e006e01fc644281800011a65a00000000000000018ee
:0d53650005000723c30060000000000000e9
:2053720000000000000000000000000000000000000000000000000000000000000000001b
:20539200000000000000000000000000200a000000004000000000002900341c8408000488
:2053b2000140a0000000b80b7a9c00840ac03f0bc00038070e0aa58200200000000000002b
:0d53d200020000003c00000003800000000d
:2053df000000000000000000000000000000000000000000000000000000000000000000ae
:2053ff000000000000014001c50208280801522800000e0000000028010056c84400002019
:20541f00026ef5000080800b7a94800000001c8380000000003265a00000002c00000000ed
:0d543f0000019523c3000000002ed80000de
:20544c00000000000000000000000000000000000000000000000000000000000000000040
:20546c00000000000000203d0a000000050e943d40000000000000100980f69ec000400464
:20548c0033f050000100b00f02a8000800002d87600000000002258000000034000000002c
:0d54ac00000080803c000000c02f90000038
:2054b9000000000000000000000000000000000000000000000000000000000000000000d3
:2054d9000000000000000380000000000000073140800000000000000b80d23d4800a60ea2
:2054f9000040e70000003007f560000200060de646200000007a65a00040200000000000a0
:0d55190000181523c3000002000000000070
:20552600000000000000000000000000000000000000000000000000000000000000000065
:205546000000000000000400000000000d00d43280000000000000000b0e542800004000d9
:20556600034a4200000000853364200408043c0bc01000070002a580008024280000000435
:0d558600000080803c00000040000000009c
:205593000000000000000000000000000000000000000000000000000000000000000000f8
:2055b300000000000000c00000000000430017a8c0800000000000000001fba940000006eb
:2055d300006cf540000059ebace0000a020007e3d0000001803a65a0400020005e80000083
:0d55f300000007a3c30000000396a05600af
:20560000000000000000000000000000000000000000000000000008000000000000000082
:205620000000000000002000000000002bcc0428c400000000000000030a1c1540000000e5
:2056400002405000000000033ae480040143ad8260080000800a258000001400e80000000d
:0d566000040000003c0000000000005a00a3
:20566d0000000000000000000000000000000000000000000000000000000000000000001d
:20568d000000000000000600000000000000960800000a0000000010010a833140800e06ac
:2056ad000368f540000038076bd4000000020000000000051c7a65a020000000fe2a2000b5
:0d56cd00000005a3c30000000280000000e3
:2056da000000000000000000000000000000000000000000000000000000000000000000b0
:2056fa00000000000000000000000000000f5f0000100000000000280080703280000c003c
:20571a0003d0500800003809014000000007400000000000000aa580000000376e7a00002d
:0d573a00000000003c00000006c000000060
:20574700000000000000000000000000000000000000000000000000000000000000000042
:20576700000000000002071de5000000038073010040000000000100211b5f388484000004
:20578700075cf540000078c3636c08000000000000000000007265a0000020017a801000b6
:0d57a700009805a3c300000142800000002f
:2057b4000000000000000000000000000000000000000000000000020000000000000000d3
:2057d400000000000002c00105000000008f7a548000000000000000000f04388000000045
:2057f4003140a0080000f90983e8800009c38000000000000a0a258000002c0369000000f2
:0d581400001000803c00000026c0000000d5
:20582100000000000000000000000000000000000000000000000000000000000000000067
:205841000000000000000036a80020000000332800000000000000000001000000000000ed
:2058610074000000000179af64f4004000e2a7a7641000018e1a65a000000400000000009c
:0d588100008187a3c300c008c00000000024
:20588e000000000000000000000000000000000000000000000000000000000000000000fa
:2058ae0000000000000042de00000000000bf43d4800000000000000050e00000000000023
:2058ce006000000000027003ac98008000222df5200000008003258000002600000000006f
:0d58ee00001000803c00c0076000000000ba
:2058fb0000000000000000000000000000000000000000000000000000000000000000008d
:20591b0010000000000000000000000000005ee0001000000000000000009abd4000400433
:20593b0000000000000000033d89000021c28df624000003803a25a0000020200000000037
:0d595b0000000723c3010000000000000051
:2059680000000000000000000000000000000000000000000000000000000000000000001f
:20598800c0000000000002000000000000005a8000400000000000030500982800008000db
:2059a800200000000000008b6ed4040000241ffb50800000800aa581002014740000000088
:0d59c800000000003c100000000000000086
:2059d5000000000000000000000000000000000000000000000000000000000000080000aa
:2059f500000000001001c217b08000000800ff820000000000000000001e17388080000082
:205a1500684c3810380000a0000000e0c003bff2f0000000007a25a02e0080000000001854
:0d5a350000000723c3000000000000000077
:205a4200000000000000000000000000000000000000000000000000000000000000000044
:205a6200e00000000000000ea00000021b0a7b80020008000000000003180438800000048f
:205a8200316d76002000f0000000008003401e92a00020000f0225800801400000000000ae
:0d5aa200000000003c0000000000000000bb
:205aaf000000000000000000000000000000000000000000000001000000000000180000be
:205acf00003bc18000000040000000000380da80088000000000000000000728c080a00087
:205aef00025ea5000282000000000000000027f190000003807a25a020000001ec626002d3
:0d5b0f0000019523c300000000000000000d
:205b1c00000000000000000000000000000000000000000000000100000000000010000058
:205b3c000043c08000000380000000000380182000000000000000000300f014c00040245d
:205b5c0002405500010550000000000000001efa70000000800aa580000000026eb50001df
:0d5b7c00000080803c0000000000000000e0
:205b89000200000000000000000000000000000000000000000000000000000000000000fa
:205ba900c00000000a0342c0000000000f009e810200000000000000118000000004002424
:205bc900727ea000000200800000000000001f8644240000001a25a020008000000000001e
:0d5be90000181523c300000000000000009c
:205bf60000000000000000000000000000000000000000000000000000000000000000018e
:205c1600000000000401668000000000018a5a800210000000000002210000000000040cd9
:205c360001d0fa00000401000000000400001e07c0000050000a2580000000000000000096
:0d5c5600000080803c000000000000000005
:205c6300000000000000000000000000000000000000000000000000000000000000000021
:205c8300080295400445e000a0f0000001808314000002000000000000010000000000004e
:205ca30079c0e70200001010000000040002800000001001807a25a020001e040000000007
:0d5cc300000007a3c3000000000000000067
:205cd0000000000000000000000000000000000000000000000000000000000000000000b4
:205cf000090168800000000100f01000000010280000000000000000000f00000000000456
:205d100001c042000000f8f00000000000000000000000008002a5800000003800000000a9
:0d5d3000000000003c00000000000000002a
:205d3d00000000000000000000000000000000000000000000000000000000000000000046
:205d5d00000000000a000025f740002800005a8000c00000000001080388bb17c0000000d8
:205d7d0003eef50002818009f189000001c72fe5141000001a7225a040a00023fc62604048
:0d5d9d00000005a3c300000000000000008e
:205daa000000000000000000000000000000000000000000000000000000000000000000d9
:205dca000000000000000007b9b000000000f0008200000000000000098954028000082443
:205dea0025d0a000000070093ad4810001660d8a70000000000225800040007ef9b500007b
:0d5e0a00000000003c02000000000000004d
:205e170000000000000000000000000000000000000000000000000000000000000000006b
:205e37000802954440000027ea5020100801f7828000008000000000000c870282000024da
:205e57002a7bfb2000008000000000002060000000000003017225a800002e0000000000fa
:0d5e7700009805a3c300000000000000001b
:205e84000000000000000000000000000000000000000000000000000100000000000000fd
:205ea400ed0168a10000001708520400070ff00008000100000000000010140140000026d8
:205ec400016d5b00000030a00000000800400000000000008e0aa580000a3e0000000000d8
:0d5ee400001000803c0000000000000000e5
:205ef100000000000000000000000000000000000000000000000000000000000000000091
:205f110000000000000007c0000000000d0a00000000000000000000080086a000c00b3663
:205f31006b7dfb001000000321890040a2e72fe514002003005225a0040000644c62490026
:0d5f5100008187a3c30000000000000000d5
:205f5e00000000000000000000000000000000000000000000000000000000000000000023
:205f7e000000000000000280000000000f90000000000e0000000000070070100800002c19
:205f9e00026ab500202800057ad401800b632f9a720810098e03258008000065d9b50000ab
:0d5fbe00001000803c00000000000000000a
:205fcb00000000000000000000000000000000000000000000000000000000000000300086
:205feb0000000000000000000000000385000000000000000000000008011ba80000014ef3
:20600b00027aa50000000009f0f4000000029c0008000087003a65a00000000000000000fb
:0d602b0000018723c32000000600000000d4
:20603800000000000000000000000000000000000000000000000000000000000000000048
:206058000000000000000200000000000000000000000000000000000b09703e8000029e44
:206078002570550000001005609840001400000000200000800325814000003800000000fc
:0d609800000000003c1000000000000000af
:2060a5000000000000000000000000000000000000000000000000000000000000080000d3
:2060c5000000000020000000000000000100de280000000000000000010016b888800000bd
:2060e5007878f500380058000000000008069e8f080000000a3a25a00200000008f0501878
:0d61050000800723c341600000000000007f
:2061120000000000000000000000000000000000000000000000000000000000002000004d
:206132000000000000000000000000000d80183d40000e0000000000000000388000000461
:2061520073d05000200008000000000010038000f0000090100225804800000010f0000060
:0d617200001000003c0000000000000000d4
:20617f000000000000000000000000000000000000000000000000000000000000300000d0
:20619f0000000000c400000000000000038087a8c0c00000000000018000f3480000001e10
:2061bf003a40e712000001f9f0e0000000068089680000000a7a65a00c0000200000000057
:0d61df0000001523c3000000068080f004be
:2061ec00000000000000000000000000000000000000000000000000000000000030000063
:20620c0000000000c2000000000000000900f414c00040000000000000007b4000000602dc
:20622c0043404200000001f561d80000000000c690000000100b25804c00000000000000fc
:0d624c00000080803c200000000100f000f8
:20625900000000000000000000000000000000000000000000000000000000000000000025
:20627900000000000000000000000000001a3f0e00000000000000000180000000040024f5
:2062990062e8fb0000003803719108000002968f08000000003a25a00040000000000000ed
:0d62b900000001a1540000000000af04002f
:2062c6000000000000000000000000000000000000000000000000000000000000000000b8
:2062e6000000000000000000000000000710ba9d8010000000000000008000000000403e9c
:206306002efcb5000000080fc2f0200000000200f00000000003a580002000000000000075
:0d632600000000015400000000010f000005
:2063330000000000000000000000000000000000000000000000000000000000000000004a
:2063530000000000000000600a540000000c00000000010000000100071a00000000001c21
:2063730000fafb0000000000000000080200048f08000000017a65a0000000000ef04000b2
:0d63930000040023c1000000000000000015
:2063a0000000000000000000000000000000000000000000000000000000000000000000dd
:2063c000000000000000038c05a28800000000000000a080000000000080000000000e0051
:2063e00003ee7a20000000f00000000402400200f00001000c03a5800000000010f00800ad
:0d64000000000043c020000000000000006c
:20640d0000000000000000000000000000000000000000000000000000000000000000006f
:20642d000000000000000000cf041000080077828000200000000000000092280000000e03
:20644d00664aa500000001f0000000001000009968000009003265a0104c0000000000003c
:0d646d0000000002954000000000af040890
:20647a000000000000000000000000000000000000000000000000000000000000001800ea
:20649a0000000000000240010f000000070b000288000000000000000b0a743e80000002ab
:2064ba006cc05500000000a000000000080000969000000d800ba5800000000000000000b6
:0d64da00000009016800000000010f000033
:2064e700000000000000000000000000000000000000000000000004000000000000000190
:20650700e802950000000380000000000700168000c0000000000000070f87b88080001ca4
:2065270069daa30200000000000000000000008968000008001a65a000000038000000001c
:0d65470000980000000000000000000000af
:20655400000000000000000000000000000000000000000000000000000000000000000027
:20657400070168800000000000000000008050200800000000000000070e34344000002c36
:206594006410a3000000008000000000414000b690000009000b25800000003c0000000094
:0d65b40000100000000000000000000000ca
:2065c1000000000000000000000000000000000000000000000000000000000000000010aa
:2065e10000000000000000008f050000230900000000000000000000078103a8c080000067
:206601006b5ef50010005805798900000140068f0800110980522a80000000000af040009e
:0d662100000000000000000000000000006c
:20662e00000000000000000000000000000000000000000000000000000000000000000844
:20664e0000000000000000010f000000001900000000000000000000098ab414c8000000e0
:20666e000370a0002000000dbed4200000000200f008280d8e082a800000000010f00000ab
:0d668e0000000000000000000000000000ff
:20669b000000000000000000000000000000000000000000000000000000000000000000df
:2066bb00003bc1000000000000000000610000000000000000000000000000000000002042
:2066db00007ea50041000000000000000007048f08800008001b0f104000006008f04000ff
:0d66fb000000000000000000000000000092
:20670800000000000000000000000000000000000000000000000000000000000000000071
:206728000043c0000000000000000000590000000000000000000000000000000000003cb9
:2067480000705500008c00f00000000000000200f040000b005bcb040000014010f0010047
:0d6768000000000000000000000000000024
:206775000000000000000000000000000000000000000000000000000100000000080000fb
:206795000000000020000000000000000001000000000000000000000000000000020000c1
:2067b5003800000008000008029520000000568f088380201800000006000028000000006f
:0d67d50000000000000000000000000000b7
:2067e200000000000000000000000000000000000000000000000000000000000020000077
:20680200000000008000000000000000000a000000000000000000000008000000000000e4
:2068220040000000200000050168000000038200f00200401a0000000000000000000001b6
:0d6842000000000000000000000000000049
:20684f000000000000000000000000000000000000000000000000000000000000300000f9
:20686f0000000000c00000000000000007807742c40000000000000008000000000c000031
:20688f000000000010000000000000001600148f08100009000000000000000000000000ff
:0d68af0000000000000000000000000000dc
:2068bc0000000000000000000000000000000000000000000000000000000000003000008c
:2068dc0000000000c0000000000000000000f26ac000000000000000090a0000000c0000a1
:2068fc000000000010000000000000000ac00000f0000003000000000000000000000000af
:0d691c00000000000000000000000000006e
:2069290000000000000000000000000000000000000000000000000000000000000000004e
:20694900000000000000000000000010000013a8000000000000000000080000000000203b
:20696900000000000080380073c1800000038c8f081003a00adf98900000000000000001b7
:0d6989000000000000000000000000000001
:206996000000000000000000000000000000000000000000000000000000000000000000e1
:2069b6000000000000000000000000300000103d40000000000000000f1000000000000cd9
:2069d600000000000118180043c0000000000200f000405000ff2d4040020000000000003d
:0d69f6000000000000000000000000000094
:206a0300000000000000000000000000000000000000000000000000000000000000000073
:206a2300000000000000000000000000000007b88080000000000000000082940810000066
:206a430000000000000000000000000000405c8f0800000900531b00000016000000000073
:0d6a63000000000000000000000000000026
:206a7000000000000000000000000000000000000000000000000000000000000000000006
:206a90000000000000000000000000000000503440000000000000000000b4280000000046
:206ab0000000000000000000000000000022c200f004000b0032ab00000006000000000000
:0d6ad00000000000000000000000000000b9
:206add00000000000000000000000000000000000000000000000000000000000000000099
:206afd0000000000000002000000000001000000000000000000010000009ebd40000000da
:206b1d0000000000000010100000000004001e8f0800004000139910a000000000000000e3
:0d6b3d00000000000000000000000000004b
:206b4a0000000000000000000000000000000000000000000000000000000000000000002b
:206b6a0000000000000000000000000000000000000000000000000000095c140000000092
:206b8a0000000000000808c00000000000000200f004002000302f040000000000000000a2
:0d6baa0000000000000000000000000000de
:206bb7000000000000000000000000000000000000000000000000000000000000000000be
:206bd700e000000000000701cf040000070800000000000000000000000c02b880c00000ce
:206bf700701af041420000080295020000000c8f080000018a531b0000000c006c3d00008f
:0d6c17000000000000000000000000000070
:206c240000000000000000000000000000000000000000000000000000000000000000014f
:206c4400e0000000000000010f0000000310000000000000000000000000f03440000000c9
:206c64004000f018010000050168000000024000f01001808032970000000200ee26000037
:0d6c84000000000000000000000000000003
:206c91000000000000000000000000000000000000000000000000000000000000000000e3
:206cb1000000000000000000000000200000000000000000000000000000000000000000a3
:206cd1000400000000000008029500000007868f080100039d1f9910c08000000000000033
:0d6cf1000000000000000000000000000096
:206cfe00000000000000000000000000000000000000000000000000000000000000000076
:206d1e0000000000000000000000001007000000000000000000000000000000000000003e
:206d3e00200000000000000301684000a0000200f01200009a382f020000000000000000c2
:0d6d5e000000000000000000000000000028
:206d6b00000000000000000000000000000000000000000000000000000000000000000008
:206d8b00000000000000060000000000090000000000008000000000000e1ac14e60001ca6
:206dab00205cf50000805003b6c4000000001e8f08000008017b1090000000000000000031
:0d6dcb0000000000000000000000000000bb
:206dd800000200000000000000000000000000000000000000000000000000000000000099
:206df8000000000000000000000000000b000000000001000000000000107e494000000058
:206e18006d4050010108000036c4000010000000f0c000030d727d44400000000000000016
:0d6e3800000000000000000000000000004d
:206e45000068000000000000000000000000000000000000000000000000000000000000c5
:206e6500000000002000000000000000080a000000000000000000200009000000000000b2
:206e850000dca010000070800000000000001e8f0803800800d7d8920000000000000000f0
:0d6ea50000000000000000000000000000e0
:206eb20000400000000000000000000000000000000000000000000e000000000000000072
:206ed2000000000080000000000000000d10000000000000000000100009000000000004e6
:206ef2002c40f500000000000000001008000200f002000b00bbad4400000000000000005c
:0d6f12000000000000000000000000000072
:206f1f00300000000000000000000000000000000000000000000100000000000000000021
:206f3f000573d440c0020024aa500000100000000000000000000000001d3a3ec00000144d
:206f5f002a4ca000008480000000000400000e8f0800000d8800000000000e0000000000ac
:0d6f7f000000000000000000000000000005
:206f8c00000000000000000000000000000000000000000000000100000000000000005094
:206fac000003d400c002c01605520000000000000000008000000000001cd7ad4400000299
:206fcc004050f508000010000000000200000200f000000b00000000000000000000000009
:0d6fec000000000000000000000000000098
:206ff900000200000000000000000000000000000000000000000000000000000000000076
:20701900000000000001400005a400000d98000000000000000000000001000000040000c3
:20703900000000000000100fb3d4000200005c8f0800102d9d1b5892000200034d740000f7
:0d7059000004000000001000000000000016
:20706600000000000000000000000000000000000000000000000000000000000001000009
:20708600000000000000201c0a5000000780000000000000000000000009000000000000c4
:2070a60000000000000000090280000400030200f00000550ef7ad4200000000cfa000008e
:0d70c60000000000000000000000000000bd
:2070d30000000000000000000000000000000000000000000000000080000000000000001d
:2070f300000000000000100000000000000000000000400000000000278000000000000086
:20711300200000000000f0082b888800000000996800000500fe90980000200000000000bd
:0d713300000000000000000000000000004f
:207140000000000000000000000000000000000000000000000000014000000000001800d6
:20716000000000000000000000000000000000000000a00000000000508000000000002c73
:20718000000000000000700503440000000300c69000000d8bb3fd4020002400000000000e
:0d71a00000000000000000000000000000e2
:2071ad00000000000000000000000000000000000000000000000000000000000000005072
:2071cd00000000000000000000000000000096bd4000000000000000030000000000001cf0
:2071ed000058a000000070100000000002029e8f0800000b0dded890300c04000000000033
:0d720d000000000000000000000000000074
:20721a00000000000000000000000000000000000000000000000000000000000000000054
:20723a00000000000000000000000000000054140400000000000000000000000000001cac
:20725a000070f500000008900000000001400000f00000071bdbad400000020000000000fa
:0d727a0000000000000000200000000000e7
:207287000000000000000000000000000000000000000000000000000000000000000000e7
:2072a70000000000000202000000000000009fa940000000000001000100b6a9402000007a
:2072c7000048f500908001e960f400000002968f080000139b5794580200000000000000fa
:0d72e700000000000000000000000000009a
:2072f4008000000000000000000000000000000000000000000000000000000000000000fa
:20731400000000000001c00000000000000058154000000000000000000074154000000022
:20733400035050000000010f3c98800000000200f08000001f1329c0200000000000000085
:0d735400000000000000000000000000002c
:2073610000000000000000000000000000000000000000000000000000000000000000000c
:20738100000000000000000000000000000006314080000000000040058000000000000030
:2073a10000000000000010800000000001668c8f0809000500bad890600000000000000022
:0d73c10000000000000000000000000001be
:2073ce0000000000000000000000001000000000000000000000000000000000000000008f
:2073ee000000000000000000000000000700103280000000000000000000000000000a00ac
:20740e00000000000000090000000000a3c00200f002000980339e800000003000000000f4
:0d742e000000000000000000000000000051
:02743b0000004f
:02743d0011013b
:02743f00010149
